:020000040800F2
:10000000780D0020A90D0008690300086B030008A3
:100010006F03000873030008770300080000000066
:100020000000000000000000000000007B0300084A
:100030007D030008000000007F030008C10D0008D8
:10004000C30D0008C30D0008C30D0008C30D000850
:10005000C30D0008C30D0008C30D0008C30D000840
:10006000C30D0008C30D0008C30D0008C30D000830
:10007000C30D0008C30D0008C30D0008C30D000820
:10008000C30D0008C30D0008C30D0008C30D000810
:10009000C30D0008C30D0008C30D0008C30D000800
:1000A000C30D0008C30D0008C30D0008C30D0008F0
:1000B000C30D0008BB050008C30D0008C30D0008F0
:1000C000C30D0008C30D0008C30D0008C30D0008D0
:1000D000C30D0008D92D0008C30D000877060008DD
:1000E000C30D0008C30D0008C30D000800F002F89E
:1000F00000F06BF80AA090E8000C82448344AAF157
:100100000107DA4501D100F060F8AFF2090EBAE854
:100110000F0013F0010F18BFFB1A43F0010318473B
:10012000A86A0000C86A00000A444FF0000C10F8EA
:10013000013B13F0070408BF10F8014B1D1108BF65
:1001400010F8015B641E05D010F8016B641E01F805
:10015000016BF9D113F0080F1EBF10F8014BAD1C55
:100160000C1B09D16D1E58BF01F801CBFAD505E073
:1001700014F8016B01F8016B6D1EF9D59142D6D3CD
:10018000704700000023002400250026103A28BFF5
:1001900078C1FBD8520728BF30C148BF0B607047F9
:1001A000642905F01783782905F0508300207047F3
:1001B0001FB505F07DFD04000020002105F012FEB2
:1001C000401C60601FBD10B510BD05F095FD1146C7
:1001D000FFF7EEFF00F008F805F0B3FD03B4FFF7FA
:1001E000F2FF03BC02F092FD08B502F025FD4FF4CA
:1001F000A06000F0F9FD00F053FA00F01FFD00F0E0
:10020000B4FB40F2E731472000F0AAF91C21454831
:1002100005F08CFC4FF4165000F0DEF904F099F96B
:100220004FF4FA7002F045FD012004F0A9F900F046
:1002300093FD10233CA20221002000F070FC10234B
:100240003BA20421002000F06AFC10233AA2062100
:10025000002000F064FC64E0012000F068FA3849F6
:100260000880022000F063FA36490880032000F07D
:100270005EFA354908803248008834490968884266
:1002800008DD33480068012804D13249086000F0D5
:100290007AFD02E000202F4908602A4800882E4994
:1002A0000968884208DD2A480068012804D12B49E2
:1002B000086000F068FD02E000202849086022483C
:1002C000008827490968884208DD2148006801281C
:1002D00004D12449086000F056FD02E000202149C5
:1002E000086002F082FE0F4804F0BAFB10200323DE
:1002F0000090134802880221462000F0CCFB102019
:10030000032300900F4802880421462000F0C3FB1D
:100310001020032300900C4802880621462000F09C
:10032000BAFB99E7350500204D51323A0000000034
:100330004D51353A000000004D51393A000000009F
:1003400022000020240000202600002010000020B1
:100350001C000020040000201400002008000020E1
:10036000180000200C000020704700BFFEE700BF0F
:10037000FEE700BFFEE700BFFEE77047704770472B
:100380000CB50020019000906C48006840F480306B
:100390006A49086000BF6948006800F400300090B6
:1003A0000198401C0190009818B90198B0F5A06F11
:1003B000F1D16248006800F4003010B101200090D3
:1003C00001E0002000900098012843D15C480068BB
:1003D00040F010005A4908600846006820F0030009
:1003E00008600846006840F0020008605348406812
:1003F000524948600846406848600846406840F4F2
:10040000806048600846406820F47C1048600846D8
:10041000406840F4E81048600846006840F080708A
:10042000086000BF4548006800F000700028F9D05F
:100430004248406820F00300404948600846406850
:1004400040F00200486000BF3C48406800F00C00EB
:100450000828F9D10CBD10B5FFF792FF10BD10B5FB
:100460003648006840F0010034490860084640689A
:10047000344908403149486008460068324908401C
:100480002E4908600846006820F48020086008466D
:10049000406820F4FE0048604FF41F008860FFF7BA
:1004A000DAFF4FF000602949086010BD10B5002147
:1004B00000200022214B5B6803F00C0121B10429CC
:1004C00006D0082928D107E0214B224C236027E0E1
:1004D0001F4B204C236023E0184B5B6803F4701023
:1004E000164B5B6803F48032022303EB904022B981
:1004F000194B4343174C23600DE0104B5B6803F42A
:10050000003323B1144B4343124C236003E0104BE0
:100510004343104C236003E00D4B0E4C236000BF9F
:1005200000BF064B5B68C3F303130C4CE15C094B43
:100530001B68CB40074C236010BD00000010024038
:10054000002002400000FFF8FFFFF6FE08ED00E08B
:1005500000127A002800002000093D002C00002035
:100560007FB505460C460121022000F0D4FFADF80E
:100570000850ADF804400020ADF80A00ADF80600C0
:1005800001A9144801F0F6FA01221146114801F0C0
:1005900068FE1D208DF8000000208DF8010003206A
:1005A0008DF8020001208DF80300684600F021FC60
:1005B0000121084801F03AFE7FBD10B50121054830
:1005C00002F0FDF828B10121024802F009F902F019
:1005D0004BFD10BD0004004010B586B0044601215B
:1005E000082000F08BFF0121880400F094FF4FF4F5
:1005F0008060ADF8140003208DF8160018208DF8E7
:10060000170005A9244800F0BDFC4FF40060ADF8C8
:10061000140004208DF8170005A91F4800F0B2FC53
:1006200027208DF8000003208DF801008DF80200CE
:1006300001208DF80300684600F0DBFB01940020E8
:10064000ADF80800ADF80A00ADF80C00ADF81000E8
:100650000C20ADF80E0001A9104800F0F6FF0122B1
:1006600040F225510D4801F088F801210B4801F0B6
:1006700078F806B010BD08B540F22551074801F0E2
:1006800061F940B1054801F0DDF8C0B200900121E8
:10069000684602F0D5FD08BD000C0140004800404E
:1006A00000B587B00121480200F028FF0121042095
:1006B00000F024FF4FF4004000F084FE00208DF88D
:1006C0001B000F20ADF8180003208DF81A0006A9B2
:1006D000244800F057FC002001904FF40060049083
:1006E0004FF46020039000208DF809008DF8080079
:1006F00001208DF8140001A91B4802F09CF801218B
:10070000194802F0C4F8184802F0E3F800BF164890
:1007100002F0E4F80128FAD0134802F0E9F800BF2B
:10072000114802F0EAF80128FAD007B000BD70B510
:1007300004460523012221460B4802F014F9012149
:10074000094802F0E4F800BF0221074802F050FA1D
:100750000028F9D0044802F06DF905462D1228460C
:1007600070BD0000000801400024014010B54FF4A6
:100770008071F94800F0B3FC4FF40071F64800F0C6
:10078000AEFC4FF40071F44800F0ABFC4FF4807104
:10079000F14800F0A6FC10BD10B54FF48071EE4892
:1007A00000F09DFC4FF40071EB4800F09AFC4FF410
:1007B0000071E94800F093FC10BD10B54FF4807152
:1007C000E54800F08CFC4FF48071E34800F089FCB0
:1007D00010BD2DE9F04105462C464FF48071DE48EE
:1007E00000F07FFC00261CE0274607F08007802FE2
:1007F00004D1B900D84800F072FC04E04FF4007155
:10080000D54800F06EFC6006040E4FF48071D248AB
:1008100000F065FC4FF48071CF4800F062FC701C62
:10082000C6B2082EE0DBBDE8F08110B50446FFF744
:100830009DFF7820FFF7CDFFFFF7BFFF0020FFF7F8
:10084000C8FFFFF7BAFF2046FFF7C3FFFFF7B5FF6A
:10085000FFF7A2FF10BD10B50446FFF787FF782011
:10086000FFF7B7FFFFF7A9FF4020FFF7B2FFFFF741
:10087000A4FF2046FFF7ADFFFFF79FFFFFF78CFFB8
:1008800010BD70B504460D461DB1E0B2FFF7E3FFA1
:1008900002E0E0B2FFF7C9FF70BD70B50646002464
:1008A00018E004F1B0000021FFF7EBFF002108463B
:1008B000FFF7E7FF00211020FFF7E3FF002505E029
:1008C00001213046FFF7DDFF681CC5B2802DF7DB44
:1008D000601CC4B2082CE4DB70BD06E041F6650183
:1008E00000E0491E0029FCD1401E0028F6D17047C7
:1008F000014605E0002001E0421CD0B27B28FBDB72
:100900000A1EA1F10101F5D1704770B504460D46EC
:1009100005F1B0000021FFF7B4FF102141EA1410E7
:100920000021FFF7AEFF04F00F000021FFF7A9FF41
:1009300070BD10B500218D20FFF7A3FF002114200A
:10094000FFF79FFF0021AF20FFF79BFF10BD10B501
:1009500000218D20FFF795FF00211020FFF791FF68
:100960000021AE20FFF78DFF10BD70B5002418E008
:1009700004F1B0000021FFF784FF00210846FFF7D3
:1009800080FF00211020FFF77CFF002505E00121FA
:100990000020FFF776FF681CC5B2802DF7DB601CD6
:1009A000C4B2082CE4DB70BD70B5002418E004F17B
:1009B000B0000021FFF765FF00210846FFF761FF47
:1009C00000211020FFF75DFF002505E0012108460A
:1009D000FFF757FF681CC5B2802DF7DB601CC4B25F
:1009E000082CE4DB70BD2DE9F04707460E46904623
:1009F000994600250024A8F12000C5B27F2F02DD12
:100A00000027B01CC6B2B9F1100F24D131463846C8
:100A1000FFF77BFF002408E004EB05114F4A505C10
:100A20000121FFF72EFF601CC4B2082CF4DB701C00
:100A3000C1B23846FFF769FF002409E004EB051155
:100A40000831464A505C0121FFF71BFF601CC4B20D
:100A5000082CF3DB12E031463846FFF756FF00243E
:100A60000AE005EB45013E4A02EB4101085D012128
:100A7000FFF707FF601CC4B2062CF2DBBDE8F0876D
:100A800010B50246012000E050430B1EA1F1010405
:100A9000E1B2F9D110BD2DE9FF5F074691461E4630
:100AA0000E9D4FF0000A002435E0301B401EC1B2FD
:100AB0000A20FFF7E5FFB9FBF0F00A21B0FBF1F2E5
:100AC00001FB1208BAF1000F14D1701EA04211DD13
:100AD000B8F1000F0CD1AB4605EBDB71491001FBFF
:100AE0000471C8B22B4620220199FFF77CFF10E069
:100AF0004FF0010AAB4605EBDB71491001FB0471B5
:100B0000C8B208F13001CAB22B460199FFF76BFF5A
:100B100000BF601CC4B2B442C7DBBDE8FF9F2DE933
:100B2000F04104460F461546984600260FE0AA5DA0
:100B3000434639462046FFF756FF04F10800C4B289
:100B4000782C02DD0024B81CC7B2701CC6B2A85DA8
:100B50000028ECD1BDE8F081000C01406A65000876
:100B6000426300082DE9F04180460E4615460027F5
:100B700031464046FFF7C9FE00240AE0744A02EB02
:100B80008511085D0121FFF77CFE781CC7B2601C4F
:100B9000C4B2102CF2DB701CC1B24046FFF7B5FEA8
:100BA00000240CE06900491C694A02EB4111085D10
:100BB0000121FFF766FE781CC7B2601CC4B2102C7E
:100BC000F0DBBDE8F0812DE9F05F06460F46904668
:100BD0001C46DDF828A04FF0000BE11704EB517123
:100BE000C910A4EBC10131B92046E11704EB5171E2
:100BF000C1F3C70506E02046E11704EB5171C910A7
:100C0000491CCDB23D4615E029463046FFF77DFE32
:100C1000B1460BE059460BF1010B1AF80100012116
:100C2000FFF72FFE09F1010000F0FF09C145F1DBDC
:100C3000681CC5B2A542E7DBBDE8F09F08B50121FD
:100C4000082000F05BFC4FF44070ADF8000010206D
:100C50008DF8030003208DF8020069463D4800F03E
:100C600091F94FF440713B4800F039FA4FF4487065
:100C700002F01FF80021AE20FFF703FE0021084616
:100C8000FFF7FFFD00211020FFF7FBFD00214020B2
:100C9000FFF7F7FD0021B020FFF7F3FD00218120D1
:100CA000FFF7EFFD0021FF20FFF7EBFD0021A12062
:100CB000FFF7E7FD0021A620FFF7E3FD0021A820B4
:100CC000FFF7DFFD00213F20FFF7DBFD0021C820FB
:100CD000FFF7D7FD0021D320FFF7D3FD0021084601
:100CE000FFF7CFFD0021D520FFF7CBFD00218020AD
:100CF000FFF7C7FD0021D820FFF7C3FD0021052025
:100D0000FFF7BFFD0021D920FFF7BBFD0021F12037
:100D1000FFF7B7FD0021DA20FFF7B3FD0021122015
:100D2000FFF7AFFD0021DB20FFF7ABFD00213020F6
:100D3000FFF7A7FD00218D20FFF7A3FD0021142060
:100D4000FFF79FFD0021AF20FFF79BFD08BD0000CE
:100D50003C000020000C014008B50121082000F0F3
:100D6000CDFB0220ADF8000010208DF80300032019
:100D70008DF8020069460B4800F004F90221094889
:100D800000F0ADF908BD10B50221064800F0A9F940
:100D90004FF47A7001F08DFF0221024800F09FF9B4
:100DA00010BD0000000C0140094880470948004779
:100DB000FEE7FEE7FEE7FEE7FEE7FEE7FEE7FEE70B
:100DC000FEE7FEE704480549054A064B7047000068
:100DD0005F040008ED00000878070020780D00206F
:100DE000780900207809002031490143314A116017
:100DF000704770B5002100230F22C47804B32D4C36
:100E0000246804F4E064C4F5E064210AC1F1040339
:100E1000CA40447804FA03F184781440214309015C
:100E2000254C0678A155047804F01F050124AC4038
:100E300005786D11AD0005F1E025C5F8004109E028
:100E4000047804F01F050124AC401C4D067876118F
:100E500045F8264070BD1A4A0A400243154B1B1F35
:100E60001A60704739B1134A121D12680243114BC0
:100E70001B1D1A6006E00F4A121D126882430D4BBB
:100E80001B1D1A607047042808D14FF0E021096942
:100E900041F004014FF0E022116107E04FF0E02142
:100EA000096921F004014FF0E02211617047000050
:100EB0000000FA050CED00E000E400E080E100E055
:100EC00080FFFF1F10B50446CC48844208D10121A1
:100ED000042000F02DFB0021042000F029FB46E057
:100EE000C748844208D10121082000F021FB0021DD
:100EF000082000F01DFB3AE0C248844208D10121DD
:100F0000102000F015FB0021102000F011FB2EE056
:100F1000BD48844208D10121202000F009FB0021B6
:100F2000202000F005FB22E0B848844208D10121CE
:100F3000402000F0FDFA0021402000F0F9FA16E010
:100F4000B348844208D10121802000F0F1FA002149
:100F5000802000F0EDFA0AE0AE48844207D101217A
:100F6000801500F0E5FA0021A01500F0E1FA10BDAF
:100F700010B50121084600F0DBFA0021012000F045
:100F8000D7FA10BD2DE9F0410246002500260020C9
:100F900000230024002791F803C00CF00F0591F8FE
:100FA00003C00CF0100CBCF1000F03D091F802C08C
:100FB0004CEA050591F800C0BCF1000F31D014686F
:100FC00000202BE04FF0010C0CFA00F3B1F800C048
:100FD0000CEA03069E4220D183004FF00F0C0CFA5E
:100FE00003F7BC4305FA03FC4CEA040491F803C080
:100FF000BCF1280F06D14FF0010C0CFA00FCC2F82E
:1010000014C00AE091F803C0BCF1480F05D14FF0BD
:10101000010C0CFA00FCC2F810C0401C0828D1D307
:101020001460B1F800C0BCF1FF0F34DD546800203B
:101030002EE000F1080C4FF0010808FA0CF3B1F8AB
:1010400000C00CEA03069E4221D183004FF00F0C32
:101050000CFA03F7BC4305FA03FC4CEA040491F8CC
:1010600003C0BCF1280F05D100F1080C08FA0CF8F8
:10107000C2F8148091F803C0BCF1480F07D100F109
:10108000080C4FF0010808FA0CF8C2F81080401C58
:101090000828CED35460BDE8F0814FF6FF7101807F
:1010A000022181700421C1707047024600209368BC
:1010B0000B400BB1012000E000207047014688681A
:1010C00080B2704702460020D3680B400BB101206C
:1010D00000E0002070470146C86880B27047016197
:1010E0007047416170470AB1016100E0416170479A
:1010F000C16070474FF480320A438261816182612E
:1011000082698269704702460020434B18684FF697
:101110008073184040EA021008433F4B1860704744
:101120003E49C8617047F0B50A46002300240021FB
:10113000002500F00046B6F1004F02D1364EF169AD
:1011400001E0354E7168C0F3034583B200F44016E8
:10115000B6F5401F08D121F070612F4E766826F059
:1011600070662D4F7E6012E000F48016B6F5801F89
:1011700006D1032606FA05F4A14341F0706106E0AA
:10118000460D360103FA06F6B14341F0706122B113
:10119000460D360103FA06F6314300F00046B6F17B
:1011A000004F02D11C4EF16101E01B4E7160F0BD99
:1011B00030B500228B071C0F0F2303FA04F2164BE5
:1011C00008338C1053F824309343134C08348D109B
:1011D00044F8253023468C1053F824308C07240F14
:1011E00000FA04F423430C4C08348D1044F82530E5
:1011F00030BD0A49DC31086070470000000801403A
:10120000000C014000100140001401400018014092
:10121000001C01400020014000000140000020426D
:10122000DF48006840F00100DD490860084640687A
:10123000DC490840DA49486008460068DA49084055
:10124000D74908600846006820F4802008600846F6
:10125000406820F4FE0048604FF41F00886070472B
:10126000CF49096821F48031CD4A116011460968DF
:1012700021F480211160B0F5803F03D0B0F5802FBC
:101280000ED106E0C649096841F48031C44A1160B4
:1012900007E0C349096841F4A021C14A116000E098
:1012A00000BF00BF704710B5014600220023002098
:1012B0004A11012A02D1BA4C236806E0022A02D15F
:1012C000B74C236A01E0B64C636A01F01F020124A7
:1012D00094401C400CB1012000E0002010BD38B546
:1012E000002000900024002500BF3120FFF7DBFF25
:1012F00005460098401C00900098B0F5A06F01D002
:10130000002DF2D03120FFF7CEFF08B1012400E01C
:101310000024204638BD01460020A14A106820F074
:10132000F80040EAC10010607047A04908607047AB
:10133000024600209A4B586820F47C1042EA0103D0
:101340001843974B586070479849086670470146A4
:101350000020934A506820F0030008435060704713
:101360008F48406800F00C007047014600208C4A0E
:10137000506820F0F000084350607047014600209C
:10138000874A506820F4E060084350607047014687
:101390000020834A506820F4605040EAC100506049
:1013A000704729B17E4A527A02437D4B5A7204E05B
:1013B0007B4A527A82437A4B5A7270477B49D831C2
:1013C0000860704701460020754A506820F440408C
:1013D0000843506070470021714A20321170704AF2
:1013E00082F82010012802D004280AD104E001214B
:1013F0006B4A2032117005E00521694A20321170D4
:1014000000E000BF00BF7047694908607047644949
:10141000096A0143624A11627047654944390860AC
:10142000704730B500210022002400235C4D6D6818
:1014300005F00C0121B1042905D0082923D105E0CC
:101440005C4D056022E05B4D05601FE0544D6D680A
:1014500005F47012524D6D6805F48034022505EBD9
:1014600092421CB9544D554305600BE04C4D6D68DC
:1014700005F400351DB1504D5543056002E04D4D5A
:101480005543056002E04B4D056000BF00BF444D71
:101490006D6805F0F0010909484D6B5C0568DD4099
:1014A00045603F4D6D6805F4E061090A434D6B5C92
:1014B0004568DD4085603A4D6D6805F46051C90AA4
:1014C0003E4D6B5C4568DD40C560354D6D6805F48B
:1014D0004041890B3A4D6B5CC568B5FBF3F505617E
:1014E00030BD29B12E4A526902432D4B5A6104E0A6
:1014F0002B4A526982432A4B5A61704729B1284AC4
:1015000092690243264B9A6104E0254A926982431C
:10151000234B9A61704729B1214AD2690243204B7B
:10152000DA6104E01E4AD26982431D4BDA617047DA
:1015300029B11B4AD2680243194BDA6004E0184A09
:10154000D2688243164BDA60704729B1144A126997
:101550000243134B1A6104E0114A12698243104B93
:101560001A61704712494039086070470F49C864D2
:1015700070470B49C87170470948406A40F0807055
:1015800007494862704701460020054A92680A40B0
:101590000AB1012000E000207047014988727047BD
:1015A000001002400000FFF8FFFFF6FE000042427C
:1015B0008004424200127A0000093D00BC03002072
:1015C000CC03002010B50446FB48844209D1012118
:1015D0008803FFF7ADFF00214FF48040FFF7A8FF1D
:1015E00032E0F648844209D101214804FFF7ADFFFB
:1015F00000214FF40030FFF7A8FF25E0F0488442B7
:1016000009D101218804FFF7A0FF00214FF48020B9
:10161000FFF79BFF18E0EB48844209D10121C80481
:10162000FFF793FF00214FF40020FFF78EFF0BE040
:10163000E548844208D101210805FFF786FF002113
:101640004FF48010FFF781FF10BD2DE9F04786B001
:1016500005460E460024A24600BFA1460027B089D9
:1016600000B100BF2F462C8A4CF6FF700440F08872
:1016700004432C82AC894EF6F3100440B0883189C3
:101680000843718908430443AC81AC8A4FF6FF409C
:101690000440B0890443AC8201A8FFF7C2FEC648EB
:1016A000874202D1DDF810A001E0DDF80CA0A88986
:1016B00000F4004040B10AEBCA0000EB0A103168A8
:1016C0004900B0FBF1F807E00AEBCA0000EB0A1092
:1016D00031688900B0FBF1F86420B8FBF0F0040138
:1016E0002009642101FB1089A88900F4004040B161
:1016F000322000EBC900B0FBF1F000F0070004431A
:1017000008E0322000EB09106421B0FBF1F000F09A
:101710000F0004432C8106B0BDE8F0874FF416514A
:10172000016000218180C18001810C214181002163
:101730008181704710B502460020108A4FF2FF03E6
:1017400018400B884C8823438C882343CC88234340
:101750001843108210BD0021018041808180C1802A
:10176000704721B1828942F40052828104E082896B
:101770004DF6FF731A4082817047F0B5034600248E
:1017800000260025002040F66A17B94200D100BFAC
:101790001846C1F3421401F01F06012707FA06F5A7
:1017A000012C01D10C3004E0022C01D1103000E0FA
:1017B00014301AB107682F43076002E00768AF438F
:1017C0000760F0BD1AB1838A0B43838202E0838AEB
:1017D0008B4383827047028A4FF6F0731A4002826D
:1017E000028A0A430282704782894FF2FF731A40CD
:1017F000828182890A438281704721B1828942F0C5
:101800000202828104E082894FF6FD731A408281D0
:101810007047028A4FF6DF731A400282028A0A4337
:101820000282704721B1028A42F48042028204E0BF
:10183000028A4BF6FF731A4002827047C1F3080216
:101840008280704701468888C0F30800704781890C
:1018500041F0010181817047028BD2B20283028B79
:1018600042EA012202837047028B02F47F42028324
:10187000028B0A430283704721B1828A42F0200220
:10188000828204E0828A4FF6DF731A4082827047B8
:1018900021B1828A42F01002828204E0828A4FF6ED
:1018A000EF731A408282704721B1828A42F00802A7
:1018B000828204E0828A4FF6F7731A408282704770
:1018C00021B1828942F40042828103E08289C2F31D
:1018D0000E028281704721B1828A42F400628282C4
:1018E00004E0828A4FF2FF731A4082827047828A34
:1018F0004FF6FB731A408282828A0A4382827047C3
:1019000021B1828A42F00202828204E0828A4FF68A
:10191000FD731A408282704702460020B1F5007FB5
:1019200000D100BF13880B400BB1012000E0002064
:10193000704701F40072B2F5007F00D100BFCA43C6
:101940000280704770B50246002400230025002065
:1019500040F66A16B14200D100BFC1F3421501F052
:101960001F03012606FA03F3012D02D196893340A5
:1019700006E0022D02D1168A334001E0968A3340F8
:101980000C12012606FA04F41688344013B10CB187
:10199000012000E0002070BD10B50022002340F6B9
:1019A0006A14A14200D100BF0A1201249440A3B2DC
:1019B000DC43048010BD00000038014000440040BA
:1019C00000480040004C00400050004010B5044664
:1019D000FE48844208D10121C014FFF7A9FD00216F
:1019E000E014FFF7A5FDC4E0B4F1804F08D1012158
:1019F0000846FFF7AAFD00210120FFF7A6FDB8E089
:101A0000F348844208D101210220FFF79EFD002106
:101A10000220FFF79AFDACE0EE48844208D1012194
:101A20000420FFF792FD00210420FFF78EFDA0E0C7
:101A3000E948844208D101210820FFF786FD0021F2
:101A40000820FFF782FD94E0E448844208D1012198
:101A50001020FFF77AFD00211020FFF776FD88E0C7
:101A6000DF48844208D101212020FFF76EFD0021CC
:101A70002020FFF76AFD7CE0DA48844208D101218A
:101A80004014FFF755FD00216014FFF751FD70E091
:101A9000D548844209D10121C804FFF749FD00213E
:101AA0004FF40020FFF744FD63E0D048844209D1A1
:101AB00001210805FFF73CFD00214FF48010FFF7DE
:101AC00037FD56E0CA48844209D101214805FFF795
:101AD0002FFD00214FF40010FFF72AFD49E0C54813
:101AE000844208D101214020FFF72FFD0021402032
:101AF000FFF72BFD3DE0C048844208D10121802042
:101B0000FFF723FD00218020FFF71FFD31E0BB48D8
:101B1000844208D101218015FFF717FD0021A0158F
:101B2000FFF713FD25E0B648844209D101210804DE
:101B3000FFF7FEFC00214FF48030FFF7F9FC18E0BE
:101B4000B048844209D101214804FFF7F1FC00218B
:101B50004FF40030FFF7ECFC0BE0AB48844208D1B7
:101B600001218804FFF7E4FC00214FF48020FFF7F7
:101B7000DFFC10BD00220288944B98420ED0994B96
:101B800098420BD0B0F1804F08D0914B984205D0CD
:101B9000904B984202D0904B984204D14FF68F73ED
:101BA0001A404B881A438D4B984207D08C4B984271
:101BB00004D04FF6FF431A40CB881A4302808B882B
:101BC00083850B880385814B98420BD0854B9842C7
:101BD00008D08B4B984205D08A4B984202D08A4B52
:101BE000984201D10B7A038601238382704770B536
:101BF000002400220023058C4FF6FE763540058434
:101C0000028C8388048B4FF68F752C40B51E2C40B8
:101C10000D882C43751E2A400D892A434D882A437E
:101C20006A4DA8420BD06F4DA84208D0744DA8420F
:101C300005D0744DA84202D0734DA84213D14FF67F
:101C4000F7752A404D892A434FF6FB752A408D8847
:101C50002A434FF6FF652B404FF6FF552B408D89E9
:101C60002B43CD892B4383800483CD8885860284D2
:101C700070BD70B5002400220023058C4FF6EF766E
:101C800035400584028C8388048B48F6FF752C4010
:101C90004FF6FF452C400D884FF6FF7606EA0525E6
:101CA0002C434FF6DF752A400D8906EA05152A43B5
:101CB0004D8806EA05152A43444DA84202D0494DF5
:101CC000A8421DD14FF67F752A404D894FF6FF7609
:101CD00006EA05152A434FF6BF752A408D8806EAA5
:101CE00005152A434FF6FF352B404FF2FF752B4069
:101CF0008D8906EA85052B43CD8906EA85052B43A8
:101D000083800483CD880587028470BD70B500246C
:101D100000220023058C4FF6FF6635400584028CB7
:101D20008388848B4FF68F752C404FF6FC752C40C2
:101D30000D882C434FF6FF552A400D894FF6FF764C
:101D400006EA05252A434D8806EA05252A431F4D44
:101D5000A84202D0234DA8421DD14FF2FF752A4060
:101D60004D894FF6FF7606EA05252A434FF6FF35E3
:101D70002A408D8806EA05252A434EF6FF752B403A
:101D80004DF6FF752B408D8906EA05152B43CD894D
:101D900006EA05152B4383808483CD8885870284DA
:101DA00070BD70B5002200230024058C4EF6FF762E
:101DB00035400584038C8488828B48F6FF752A4061
:101DC0004FF6FF452A400D8820E00000002C01401E
:101DD0000004004000080040000C004000100040DB
:101DE0000014004000340140004C0140005001400C
:101DF0000054014000180040001C0040002000403A
:101E00000040014000440140004801404FF6FF7689
:101E100006EA05252A434DF6FF752B400D8906EA93
:101E200005352B434D8806EA05352B43FA4DA8426C
:101E300002D0FA4DA84208D14BF6FF752C408D898F
:101E40004FF6FF7606EA85152C4384808283CD8881
:101E5000A0F84050038470BD828B4FF2FF331A40CC
:101E60008283828B4FF6FF7303EA01231A43828336
:101E70007047F0B50C461546002200210026078C5D
:101E80004EF6FF7C07EA0C070784828B018C4FF625
:101E9000FF7707EA043640F6FF473A404FF6FF77F0
:101EA00007EA05273A434FF6FF7707EA03373A4335
:101EB000D94FB8420ED0D94FB8420BD0B0F1804FB5
:101EC00008D0D74FB84205D0D64FB84202D0D64F2F
:101ED000B84206D14DF6FF77394046F48057394372
:101EE00005E047F6FF57394044F480573943828371
:101EF0000184F0BD828B4FF6F3731A408283828B8C
:101F00000A4382837047F0B50C4615460022002133
:101F10000026078C4FF6FF6C07EA0C070784828BBC
:101F2000018C4FF6FF7707EA04264FF60C773A400C
:101F30004FF6FF7707EA03172F433A43B64FB842ED
:101F40000ED0B64FB8420BD0B0F1804F08D0B44F8E
:101F5000B84205D0B34FB84202D0B34FB84206D111
:101F60004FF6FF57394046F48077394305E04FF28A
:101F7000FF57394044F48077394382830184F0BDB0
:101F8000028B4FF2FF331A400283028B4FF6FF732E
:101F900003EA01231A4302837047F0B50C46154645
:101FA000002200210026078C4FF6EF7C07EA0C0781
:101FB0000784028B018C4FF6FF7707EA041640F680
:101FC000FF473A404FF6FF7707EA03373A434FF6A9
:101FD000FF7707EA05273A438F4FB8420ED08F4F5D
:101FE000B8420BD0B0F1804F08D08D4FB84205D029
:101FF0008C4FB84202D08C4FB84206D14FF6DF77F3
:10200000394046F01007394305E04FF65F77394015
:1020100044F01007394302830184F0BD028B4FF670
:10202000F3731A400283028B0A4302837047F0B5B0
:102030000C46154600220021068C4FF6FE773E40E6
:102040000684028B018C4FF60C7632407E1C06EA29
:1020500003162E433243704EB0420ED06F4EB04244
:102060000BD0B0F1804F08D06D4EB04205D06D4E10
:10207000B04202D06C4EB04206D14FF6FD763140F0
:1020800044F00106314305E04FF6F576314044F067
:102090000106314302830184F0BD70B505460C464C
:1020A0005D4885420ED05D4885420BD0B5F1804F2A
:1020B00008D05B48854205D05A48854202D05A482C
:1020C000854200D100E000BF208850B92389A28852
:1020D00061882846FFF7ABFFE1882846FFF79EFF9F
:1020E00025E0208804280AD12389A288618828460F
:1020F000FFF753FFE1882846FFF742FF17E02088EB
:1021000008280AD12389A28861882846FFF7FBFEA8
:10211000E1882846FFF7EEFE09E02389A28861885E
:102120002846FFF7A6FEE1882846FFF795FE70BD1A
:102130002DE9F04105460C4600260127608808B9C4
:10214000022600E00026A088012801D1022700E035
:1021500001272088A0B92389A28861882846FFF733
:1021600066FFE1882846FFF759FF23893A46314642
:102170002846FFF712FFE1882846FFF701FF13E02A
:102180002389A28861882846FFF707FFE18828464F
:10219000FFF7F6FE23893A4631462846FFF747FF08
:1021A000E1882846FFF73AFFBDE8F0810A884B88AE
:1021B0001A438B881A43CB881A430B891A434B89DD
:1021C0001A438B891A43A0F8442070474FF6FF71D9
:1021D000818000210180C18041800172704700210F
:1021E000018041808180C180018141818181C181E3
:1021F0007047002101804180012181800021C18040
:10220000018170470021018041808180C18001816E
:102210004181818170470000002C01400034014061
:102220000004004000080040000C004021B102887A
:1022300042F00102028004E002884FF6FE731A4069
:102240000280704731B1B0F8442042F40042A0F857
:10225000442005E0B0F84420C2F30E02A0F8442068
:1022600070471AB183890B43838102E083898B43D2
:10227000838170478182704741EA0203A0F84830A9
:1022800070471AB183890B43838102E083898B43B2
:102290008381704701894FF6F872114001817047C0
:1022A0000A46002101894FF68F73194011430181BD
:1022B000704730B504460D4629462046FFF7F0FF2B
:1022C000208940F00700208130BD2DE9F04104460F
:1022D0000D4616461F46602D06D13B46012231466B
:1022E0002046FFF75AFE05E03B46012231462046D4
:1022F000FFF79DFE29462046FFF7D2FF208940F0D8
:1023000007002081BDE8F08130B50C46002101892D
:10231000C9B24FF6FF7505EA032515432543294346
:10232000018130BD2DE9F04105460E46174698461D
:10233000002443463A4631462846FFF7E5FF2C89FC
:102340004FF6F870044044F007044FF68F700440D5
:1023500044F070042C81BDE8F081F0B504460D46D0
:1023600016461F463B46324629462046FFF7CCFF1D
:10237000208940F480402081F0BD01858282704731
:102380000A46002101884FF68F73194011430180DE
:102390007047F0B50C4615461E460021002200236A
:1023A0000189028B038C4FF6F877394021434FF6B1
:1023B000FC473A4040F201173A434FF6DD773B4085
:1023C0004FF6FF7707EA06172F433B43018102834D
:1023D0000384F0BD0A460021018B4FF68F7319402C
:1023E0001143018370470A460021018B48F6FF73B1
:1023F00019404FF6FF7303EA022319430183704724
:102400000A460021818B4FF68F7319401143818357
:1024100070470A460021818B48F6FF7319404FF63A
:10242000FF7303EA022319438183704721B10288B5
:1024300042F08002028004E002884FF67F731A4067
:102440000280704721B1828842F00402828004E059
:1024500082884FF6FB731A408280704721B18288D0
:1024600042F00802828004E082884FF6F7731A4037
:102470008280704721B1828842F00102828004E0AC
:1024800082884FF6FE731A40828070470A46002108
:10249000018B4FF6F77319401143018370470A46C9
:1024A0000021018B4FF2FF7319404FF6FF7303EACF
:1024B00002231943018370470A460021818B4FF69E
:1024C000F77319401143818370470A460021818BBD
:1024D0004FF2FF7319404FF6FF7303EA02231943CB
:1024E000818370470A460021018B4FF6FB73194028
:1024F0001143018370470A460021018B4FF6FF33D9
:1025000019404FF6FF7303EA022319430183704712
:102510000A460021818B4FF6FB73194011438183DA
:1025200070470A460021818B4FF6FF3319404FF662
:10253000FF7303EA02231943818370470A4600218F
:10254000018B4FF67F7319401143018370470A4690
:102550000021018BC1F30E014FF6FF7303EA022342
:102560001943018370470A460021818B4FF67F7320
:1025700019401143818370470A460021818BC1F3C2
:102580000E014FF6FF7303EA02231943818370475C
:102590000A460021018C4FF6FD7319401143018456
:1025A00070470A460021018C4FF6F773194011431A
:1025B000018470470A460021018C4FF6DF731940F1
:1025C0004FF6FF7303EA02131943018470470A466A
:1025D0000021018C4FF67F7319404FF6FF7303EA19
:1025E00002131943018470470A460021018C4FF6FB
:1025F000FF5319404FF6FF7303EA02231943018486
:1026000070470A460021018C4FF2FF7319404FF6C4
:10261000FF7303EA02231943018470470A4600212D
:10262000018C4DF6FF7319404FF6FF7303EA023336
:1026300019430184704730B5002301248C40A3B2B4
:10264000048C9C430484048C02FA01F5ADB22C4343
:10265000048430BD30B5002304248C40A3B2048C24
:102660009C430484048C02FA01F5ADB22C4304842B
:1026700030BD70B5034600200024184618300125EF
:102680008D40ACB21D8CA5431D8409B1082909D128
:1026900000EB6100056825F07005056005681543CD
:1026A00005600EE00D1FC5F34E052844056825F4AE
:1026B000E045056005684FF6FF7606EA02263543D9
:1026C000056070BD21B1028842F00202028004E080
:1026D00002884FF6FD731A400280704721B10288CC
:1026E00042F00402028004E002884FF6FB731A40B5
:1026F0000280704721B1828842F08002828004E02B
:1027000082884FF67F731A408280704702884FF6A6
:10271000F7731A40028002880A4302807047828859
:102720004FF68F731A40828082880A4382807047F6
:1027300002894FF6F8731A40028102890A43028126
:10274000704702894FF67F731A40028102890A435B
:102750000281704781847047818570478186704708
:102760000187704781877047A0F840107047028842
:102770004FF6FF431A40028002880A4302807047E6
:102780000146888E70470146088F70470146888F42
:1027900070470146B1F8400070470146888C704789
:1027A0000146088D704702460020138A0B400BB18A
:1027B000012000E000207047CA430282704730B514
:1027C0000246002000230024158A05EA01039589AA
:1027D00005EA010413B10CB1012000E0002030BD76
:1027E000CA4302827047000010B50446FA4884428A
:1027F00008D101214015FEF79BFE00216015FEF770
:1028000097FE17E0F548844208D101210015FEF734
:102810008FFE00212015FEF78BFE0BE0F04884426E
:1028200008D10121C803FEF783FE00214FF40040C8
:10283000FEF77EFE10BD30B5024600200023506832
:10284000E84C20400D790C6844EA05242043506090
:102850009068E54C2040D1E902542C434D7944EA7C
:10286000450420439060D06A20F470000C7C641E04
:10287000E4B2234340EA0350D06230BD002101603E
:10288000017141718160C16001210174704721B102
:10289000826842F00102826003E0826822F0010255
:1028A0008260704721B1826842F48072826003E0E6
:1028B000826822F480728260704710B50023CBB228
:1028C0001AB144681C43446002E044689C4344607D
:1028D00010BD816841F00801816070470146002009
:1028E0008A6802F008020AB1012000E00020704767
:1028F000816841F0040181607047014600208A68C8
:1029000002F004020AB1012000E00020704721B16A
:10291000826842F4A002826003E0826822F4A0028E
:1029200082607047014600208A6802F480020AB182
:10293000012000E00020704710B50A460021002366
:10294000416821F46041531E41EA4331416010BDAA
:1029500021B1426842F40062426003E0426822F41E
:10296000006242607047F0B504460D460020002129
:10297000092D11DDE068A5F10A0606EB46070726DA
:1029800006FA07F18843A5F10A0606EB460603FAA4
:1029900006F10843E0600CE0206905EB45070726D7
:1029A00006FA07F1884305EB450603FA06F10843EA
:1029B0002061072A0FDA606B561E06EB86071F267A
:1029C00006FA07F18843561E06EB860605FA06F15D
:1029D0000843606322E00D2A0FDA206BD61F06EB56
:1029E00086071F2606FA07F18843D61F06EB8606E0
:1029F00005FA06F10843206310E0E06AA2F10D0633
:102A000006EB86071F2606FA07F18843A2F10D069A
:102A100006EB860605FA06F10843E062F0BD21B137
:102A2000826842F48012826003E0826822F480129D
:102A3000826070470146C86C80B2704766484C306F
:102A40000068704721B1426842F48062426003E04E
:102A5000426822F480624260704721B1426842F4C9
:102A60008052426003E0426822F480524260704724
:102A70000A460021816821F4E041114381607047DA
:102A800021B1826842F40042826003E0826822F44D
:102A900000428260704721B1826842F40212826073
:102AA00003E0826822F4021282607047014600202F
:102AB0008A6802F400120AB1012000E00020704789
:102AC000F0B504461546002000220026092911DD34
:102AD000E068A1F10A0707EB470C072707FA0CF299
:102AE0009043A1F10A0707EB470703FA07F21043E7
:102AF000E0600CE0206901EB410C072707FA0CF2BB
:102B0000904301EB410703FA07F210432061A06BE9
:102B1000C0F30156EF1C06F1010CA7EB0C0707EB05
:102B2000870C1F2707FA0CF29043EF1C06F1010CEB
:102B3000A7EB0C0707EB870701FA07F21043A06326
:102B4000F0BD10B50A4600210023816B21F440112D
:102B5000531E41EA0351816310BD08B50023009361
:102B60000090009B0B440093009B1A6008BD08B5C1
:102B7000024600200090009201F12800009B1844BA
:102B800000900098006880B208BD0A4600214168A4
:102B9000164B194011434160704741628262704791
:102BA0000A460021416821F01F011143416070472E
:102BB00040B109490831096841F40001064A083268
:102BC000116007E004490831096821F40001024A54
:102BD00008321160704700000024014000280140C5
:102BE000003C0140FFFEF0FFFDF7F1FFFFFD3FFF5E
:102BF0000246002013680B400BB1012000E00020CA
:102C00007047CA430260704770B502460020002337
:102C100000240B125568CEB205EA060415681D4063
:102C200015B10CB1012000E0002070BD00220A1295
:102C3000D34303607047000010B56FF00400FEF747
:102C400022F92E4800682E49B0FBF1F02D4908709A
:102C50000846007800EB4001C1EBC0104FF6FF7151
:102C600001EAC0002849088010BD0146254A1278B3
:102C70004A434FF0E0235A6100229A611A461269D2
:102C800042F001021A6100BF4FF0E022106900F02B
:102C900001021AB100F48032002AF5D04FF0E02290
:102CA000126922F001024FF0E0231A6100229A61BA
:102CB00070470146144A12884A434FF0E0235A6194
:102CC00000229A611A46126942F001021A6100BF9D
:102CD0004FF0E022106900F001021AB100F48032D6
:102CE000002AF5D04FF0E022126922F001024FF0E5
:102CF000E0231A6100229A6170470000280000203A
:102D000000127A00D0030020D2030020014600BF49
:102D1000704700BF694A128802F04002002AF9D0C9
:102D2000C2B2664B1B1D1A80704710B5C82164489B
:102D300002F0FCFE00206349088010BD10B586B08B
:102D40000446012144F20400FEF7D8FB4FF4007062
:102D5000ADF8140003208DF8160018208DF8170028
:102D600005A95948FEF70EF94FF48060ADF814003C
:102D700004208DF8170005A95348FEF703F9252014
:102D80008DF8000003208DF801008DF8020001206D
:102D90008DF803006846FEF72CF801940020ADF88A
:102DA0000800ADF80A00ADF80C00ADF810000C20DA
:102DB000ADF80E0001A94548FEF747FC012240F29C
:102DC00025514248FEF7D9FC01214048FEF7C9FCD5
:102DD000FFF7ABFF06B010BD10B540F225513B48E0
:102DE000FEF7B0FD002839D03848FEF72BFDC4B2FD
:102DF000242C02D100203349088032480188008801
:102E0000401C304A10802E484454007824281ED19B
:102E10002B4800794D281AD129484079432816D1EA
:102E20000A2C14D150212A4802F080FE254802883D
:102E30002349274802F003FE0120254981F850006C
:102E4000002020490880C8211D4802F06FFE1D485F
:102E50000088C82802DBC8201A49088010BD10B5B8
:102E600004462146164802F0B9FD08B1012010BD04
:102E70000020FCE710B50020154981F8500081F8CA
:102E8000510081F878005021114802F04FFE10489F
:102E90005230002101604160018181720B3001607C
:102EA0004160018181725D38A0F868106A3001606C
:102EB000416081606A38A0F8761010BD004800407B
:102EC0006D040020D60300200008014000380140B6
:102ED000F40300202DE9FF5F07460E4693464FF0AE
:102EE00000083546B1463446B24607B126B94FF020
:102EF000FF3004B0BDE8F09F4FF0000870E0781C90
:102F000010F80800152865D2DFE800F038393A6477
:102F1000643B3C3D3E646464643F4958450B142067
:102F20002C002878794908700846017878A002F0CA
:102F30001DFC50E0D5F801007449C1F801000846B5
:102F4000D0F8011079A002F011FC44E0D5F805009A
:102F50006E49C1F805000846D0F805107BA002F0C4
:102F600005FC38E0D5F809006849C1F809000846B1
:102F7000D0F809107CA002F0F9FB2CE02BE02AE04D
:102F800029E028E027E026E025E099F800107DA060
:102F900002F0ECFB1FE07EA002F0E8FB1BE0A17951
:102FA00062792379A068CDE90032CDE90210E37897
:102FB000A27821887BA002F0D9FB0CE084A002F06B
:102FC000D5FB88A002F0D2FB9AF8001089A002F08D
:102FD000CDFB00E000BF00BF08F1010000F0FF08DA
:102FE000387840458BDC002083E7874800884749D4
:102FF000C1F80D0085480088C1F811008448008898
:10300000C1F815008348006808B1012000E00020E5
:103010003E4948768048006808B1012000E0002061
:103020003A4988767D48006808B1012000E0002018
:103030003649C8760846D0F8010079490860334817
:10304000D0F80900774908603048D0F80500764983
:1030500008602E48007875490860704710B51C213B
:103060002A4802F063FD10BD71480068401C704999
:10307000086070476E4800687047012080F313882D
:1030800000BF00BF6B48006800F4E0606A49084375
:10309000001D68490860BFF34F8F00BF00BFFEE707
:1030A00000B5FFF7E1FF00BD08B500200090012149
:1030B000684600F0C5F808BD70B505460E46002408
:1030C0000DB9601E70BD00241BE0295D5B48FEF752
:1030D000B5FB00BF80215948FEF71EFC0028F9D03F
:1030E000022C0DD3285DFF280AD155215348FEF745
:1030F000A5FB00BF80215148FEF70EFC0028F9D047
:10310000641CB442E1D33046DCE700003505002002
:103110004576743A204556454E545F626565705F4A
:10312000666C6167202564200A0000004576743AC9
:103130004556454E545F736D6F6B655F746872657D
:1031400073686F6C642025640A0000004576743A49
:103150004556454E545F4D51395F746872657368CA
:103160006F6C642025640A004576743A4556454ED6
:10317000545F4D51325F7468726573686F6C642080
:1031800025640A00525353492025640A00000000B8
:103190005452414E53504152454E545F4441544164
:1031A000200A0000574946495F4E5450203A205BA0
:1031B00025642D25642D256420253032643A253080
:1031C00032643A253032645D5B25645D200A00007C
:1031D0004D4F44554C4520494E464F202E2E2E0A29
:1031E00000000000574946204D4F44554C45202EC5
:1031F0002E2E0A006D6F64756C6554797065203AE7
:10320000205B25645D200A002200002026000020AB
:1032100024000020040000200C00002008000020F2
:103220001000002014000020180000201C000020C6
:10323000E00300200CED00E00000FA05004800402B
:1032400070B504460D46002624B9F0A002F08EFAAF
:10325000701E70BD2A462146F44802F029FA06463F
:10326000AE4205D0F2A002F081FA4FF0FF30F0E755
:103270003046EEE710B504462CB9F4A002F076FA19
:103280004FF0FF3010BD002020606060FF202070F4
:1032900060700020F6E770B504460D462CB9F6A024
:1032A00002F064FA4FF0FF3070BD2B21F84802F0B5
:1032B0003DFC2A462146F648801C02F0C0FBF4483B
:1032C0005338A0F87850012180F85410FFF7D2FE4F
:1032D000EF495339C1F87A000020E5E7F8B5054613
:1032E0000C4616460DB104B12EB9EAA002F03EFA22
:1032F0004FF0FF30F8BD287800F0010098B111219F
:103300002278601C81542078401C207001206B1CA6
:10331000024600210090084602F08FF808B1012013
:1033200000E0002030702878C0F3400088B11221FE
:103330002278601C81542078401C2070688801F03D
:10334000BEFD07463A460021012001F091FFC6F874
:1033500001002878C0F3800088B113212278601C16
:1033600081542078401C2070A88801F0A8FD0746F1
:103370003A460021012001F07BFFC6F805002878BD
:10338000C0F3C00088B114212278601C81542078D9
:10339000401C2070E88801F092FD07463A46002163
:1033A000012001F065FFC6F809000020A2E72DE921
:1033B000F04104460D460027002604B135B9C0A0EF
:1033C00002F0D4F94FF0FF30BDE8F081FFF752FE74
:1033D000064628782178884203D0C3A002F0C6F9B7
:1033E0000127D5F80100D4F80110884203D0C4A009
:1033F00002F0BCF90127D5F80500D4F80510884281
:1034000003D0C7A002F0B2F90127D5F80900D4F81B
:103410000910884203D0C9A002F0A8F90127687EEC
:10342000617E884203D0CCA002F0A0F90127A87EDB
:10343000A17E884203D0CEA002F098F90127E87E51
:10344000E17E884203D0D0A002F090F90127D5F8A0
:103450000D00D4F80D1088420AD0D1480068301A07
:1034600041F27071884203D3CEA002F07FF90127A8
:10347000D5F81100D4F8111088420AD0C848006865
:10348000301A41F27071884203D3CCA002F06EF979
:103490000127D5F81500D4F8151088420AD0C04885
:1034A0000068301A41F27071884203D3C9A002F05B
:1034B0005DF90127012F03D1FFF7DCFDB849086052
:1034C000384681E7F8B505460C4605B12CB9C7A0CA
:1034D00002F04CF94FF0FF30F8BD0020207060730F
:1034E0006D1C15F8010C23460122002100900846AE
:1034F00002F004F8287E23460122002100900D20CE
:1035000001F0FCFF687E23460122114600900D2049
:1035100001F0F4FFA87E23460122022100900D2035
:1035200001F0ECFF0121204601F082FE012104F1AF
:103530000D0001F07DFE2A680021012001F091FEBE
:1035400086B2304601F0BBFC24F8010F6A68002106
:10355000012001F086FE86B2304601F0B0FC6080AA
:10356000AA680021012001F07CFE86B2304601F0FD
:10357000A6FCA080EA680021012001F072FE86B25C
:10358000304601F09CFCE0802A690021012001F016
:1035900068FE86B2304601F092FC20816A696D1E99
:1035A0000021012001F05DFE86B2304601F087FC6B
:1035B0006081641E00208FE72DE9F04780460C46AD
:1035C00017461D46089E94F800900CB105B136B917
:1035D00092A002F0CBF84FF0FF30BDE8F087B8F1D1
:1035E000000F0ED116212A482B3002F09FFAB9F1B4
:1035F000010F07D0B9F1020F05D0B9F1050F03D1C2
:1036000048E169E122E12FE164E100004552523ACC
:103610002067697A50757444617461206275662010
:10362000697320656D707479200A0000BB06002064
:103630004552523A204661696C656420746F20726D
:10364000625772697465200A000000004552523AC0
:103650002067697A50726F746F636F6C486561643C
:10366000496E6974206865616420697320656D70B6
:103670007479200A000000004552523A20646174B7
:103680006120697320656D707479200A0000000064
:10369000A405002067697A44617461506F696E7493
:1036A000324576656E74204572726F72202C204907
:1036B0006C6C6567616C20506172616D0A0000007E
:1036C00067697A436865636B5265706F72742045F1
:1036D00072726F72202C20496C6C6567616C20508F
:1036E0006172616D0A00000076616C7565626565E6
:1036F000705F666C6167204368616E6765640A008D
:1037000076616C7565736D6F6B655F7468726573F8
:10371000686F6C64204368616E6765640A0000002E
:1037200076616C75654D51395F7468726573686F49
:103730006C64204368616E6765640A0076616C752D
:10374000654D51325F7468726573686F6C642043B5
:1037500068616E6765640A0076616C75654D51320B
:103760005F666C6167204368616E6765640A00008C
:1037700076616C75654D51395F666C616720436891
:10378000616E6765640A000076616C75654D513540
:103790005F666C6167204368616E6765640A00005C
:1037A000E403002076616C75654D51325F6461748D
:1037B00061204368616E6765640A000076616C751C
:1037C000654D51395F64617461204368616E67655E
:1037D000640A000076616C75654D51355F646174F3
:1037E00061204368616E6765640A000067697A4416
:1037F000617461506F696E7473325265706F727468
:1038000044617461204572726F72202C20496C6C87
:103810006567616C20506172616D0A0067697A505A
:10382000726F746F636F6C49737375656450726FF8
:1038300063657373204572726F72202C20496C6C23
:103840006567616C20506172616D0A00F94AA2F1EE
:103850006601601CFFF742FD0120F649E43908705B
:1038600000250020306036E0F2490E3901F12A00CF
:10387000FFF728FE50B90E22EE490E39681C02F0FF
:10388000DEF8032028700F20306002E04FF0FF3098
:10389000A3E620E07A1E611CE648C03802F0CFF8AB
:1038A000781EE449E439C1F847001021E148E438C2
:1038B00090F87E207F3081547F3890F87E00401C45
:1038C000DC49E43981F87E000320087000250020DF
:1038D000306000E000BF00BF00207EE62DE9F04F21
:1038E00093B006468B4617469946002012908246B2
:1038F000804600256C46BBF1000F06D1CEA001F03A
:1039000035FF681E13B0BDE8F08FB9F1010F06D185
:1039100096F8088008F10600384485B201E0781D69
:1039200085B22B4642463946C9A001F01FFFFF2051
:1039300004F8010B04F8010B281204F8010B04F839
:10394000015B3079401C04F8010B707904F8010B1D
:10395000002004F8010B04F8019B4FF0080AB9F1AC
:10396000010F0CD104F8018B0AF1010A0DEB0A00DA
:10397000424606F1090102F062F8C24444442FB104
:103980000DEB0A003A46594602F059F8291D6846DF
:1039900001F082FA0146E81C0DF80010291D684666
:1039A000FFF78AFB12901298002806DAB2A012994B
:1039B00001F0DCFE6FF00100A4E70020A2E7F0B503
:1039C00087B005460E46174600242EB9B0A001F078
:1039D000CDFE601E07B0F0BD01A8FFF74BFC05202F
:1039E0008DF808009348E43890F84B10D0F84B005D
:1039F000401C904AE43AC2F84B00C8B28DF8090066
:103A00008DF80C50142001F05AFAADF806003A4631
:103A100031460DF10D0002F012F8182101A801F055
:103A20003BFA8DF81B00182101A8FFF745FB04465F
:103A3000002C06DA2146A0A001F098FE6FF00100EC
:103A4000C8E7182101A8FFF726FC2046C2E770B599
:103A50000546FFF70FFB044676491C312846FFF761
:103A6000A6FC012814D19BA001F080FE71490E39FB
:103A70002846FFF727FD28B90E226E490E3904208B
:103A8000FFF79DFF1C2229466A481C3001F0D7FF32
:103A90009648B4FBF0F100FB1140D0B9944800689F
:103AA000A04216D093A001F061FE62490E3928466B
:103AB000FFF708FD28B90E225E490E390420FFF7F2
:103AC0007EFF1C2229465B481C3001F0B8FF884865
:103AD000046070BD2DE9FE4F80460E4617464FF03C
:103AE000000B00200290814682460025344600905B
:103AF000B8F1000F01D006B137B984A001F036FE4D
:103B00004FF0FF30BDE8FE8F404601F055FD00F05C
:103B1000FF0ABAF1000F02D14FF0FF30F2E74FF089
:103B200000095DE0012201A9404601F070FD8346D5
:103B3000BBF1000F52D081480078FF281FD19DF8BB
:103B40000400FF281BD17E48007848B9FF20207070
:103B5000607002207B49088001207949087034E0B8
:103B600078480088042830DD76480088A8422CD0A8
:103B7000FF202070607002207249088025E06F48A5
:103B80000078FF2803D19DF8040055281DD06C480B
:103B90000078012819D19DF804006A490988605409
:103BA00068480088401C6749088008460088042847
:103BB0000BDD0094009C608801F081F9001D85B246
:103BC00060480088A84200D10CE09DF804005B49E1
:103BD00008705D480078401C5B49087009F10109D4
:103BE000D1459FDB00BF57480088042820DD554899
:103BF0000088A8421CD153480188204601F04CF9A6
:103C0000029050480088401E215C0298814210D1E9
:103C10002A462146304601F012FF3D8000204849E7
:103C2000087048490880484908704449087069E7A5
:103C30008FE08BE0350600205B4552525D2020640A
:103C4000617461204973204E756C6C200A0000007D
:103C50006C656E203D202564202C20734469644CE3
:103C6000656E203D202564202C646174615F6C6565
:103C70006E203D2025640A00756172742077726998
:103C80007465206572726F72202564200A0000003E
:103C900067697A5265706F7274446174612045720D
:103CA000726F72202C20496C6C6567616C205061CA
:103CB00072616D0A000000004552523A207561722F
:103CC00074207772697465206572726F7220256442
:103CD000200A00006368616E6765642C207265705D
:103CE0006F727420646174610A000000C0270900CB
:103CF000E8030020496E666F3A2036303053207258
:103D000065706F727420646174610A0067697A502B
:103D1000726F746F636F6C4765744F6E655061634B
:103D20006B6574204572726F72202C20496C6C6533
:103D300067616C20506172616D0A0000F003002021
:103D4000EC030020EE030020F10300206FF00100DF
:103D5000D8E60120D6E610B50024F74890F85400C4
:103D600000B910BDF5A001F001FDF348B0F87810DE
:103D70005530FFF7A1F90446EF48B0F87800A042AB
:103D800002D0F6A001F0F2FCFFF774F9EA49C1F89D
:103D90007A0000BFE5E770B50446E74D553534B904
:103DA000AFF22C7001F0E2FC4FF0FF3070BD2879CB
:103DB000401C2179884204D12B21DF48533001F087
:103DC000B5FE0020F2E73EB50446002524B9E9A07F
:103DD00001F0CCFC681E3EBD206800906068019038
:103DE0009DF80400401CC0B28DF80400052001F0CD
:103DF00066F8ADF802000921684601F04DF88DF82B
:103E0000080009216846FFF757F90546002D04DA36
:103E10002946AFF25C1001F0A9FC2846DBE710B59B
:103E2000C54890F85400012827D1C34890F85300A2
:103E300002281DDAFFF71EF9BF49D1F87A10401A9F
:103E4000C8281AD9FFF716F90446BB4890F8533032
:103E5000D0F87A202146D2A001F088FCFFF77BFF42
:103E6000B54890F85300401CB34981F8530004E072
:103E70002B21B148533001F059FE10BD30B59DB033
:103E8000044600252CB9D0A001F070FC681E1DB0BE
:103E900030BD6846FFF7EEF902208DF80400607926
:103EA0008DF80500D4A103C9CDE90201D5A103C94C
:103EB000CDE90401D6A103C9CDE90801D7A103C901
:103EC000CDE906012022D8A10AA801F0FDFD20229B
:103ED000DEA10DF1520001F0B2FD0020CDF84A0044
:103EE000CDF84E009DF851008DF851009DF851001D
:103EF00040F002018DF85110002000F0E0FFADF815
:103F000048006F2000F0DBFFADF802007321684627
:103F100000F0C2FF8DF8720073216846FFF7CCF8FD
:103F20000546002D04DA2946AFF2742001F01EFC8C
:103F30002846ACE7FEB504460E46002524B9CCA0C1
:103F400001F014FC681EFEBD6846FFF793F91220CD
:103F50008DF8040060798DF80500062000F0AFFFB1
:103F6000ADF802008DF808600A21684600F094FF61
:103F70008DF809000A216846FFF79EF80546002DD6
:103F800004DA2946AFF2D02001F0F0FB2846DAE748
:103F900070B5044625462CB9C0A001F0E7FB4FF0F0
:103FA000FF3070BDC248A9680160E9684160298A94
:103FB0000181A97C81726049B1F81D0100F07FFF89
:103FC0005D49A1F81D01D1F8250100F085FF5A498E
:103FD000C1F825010E21584890F8AA20AB30815431
:103FE000AB3890F8AA00401C534981F8AA0004207D
:103FF00008700020D5E710B5FFF73CF8044600BF75
:10400000FFF738F8001BB0F5167FF9D9FFF735F840
:1040100010BD10B504462CB9A6A001F0A7FB4FF0C7
:10402000FF3010BD208900F04AFF2081AD480078A4
:10403000C0F38000217AC1F38001884256D0207AF3
:10404000C0F38000002829D0207A00F0010078B168
:104050000021394890F8942095308154953890F893
:104060009400401C344981F894009FA001F07EFB2D
:10407000207AC0F34000002838D001212E4890F863
:10408000942095308154953890F89400401C2A492A
:1040900081F894009CA001F069FB27E0207A00F0F1
:1040A000010078B10021244890F894209530815483
:1040B000953890F89400401C1F4981F894008AA01C
:1040C00001F054FB207AC0F3400078B102211A4875
:1040D00090F8942095308154953890F89400401CC5
:1040E000154981F894008FA001F040FB7D480078CD
:1040F000C0F3C000217AC1F3C00188421AD0207AEF
:10410000C1087848007861F3C30076490870207AC6
:10411000C0F3C00068B10321074890F8942095309F
:104120008154953890F89400401C034981F894001C
:1041300006E109E118E10000510500205761726EA7
:10414000696E673A2074696D656F75742C207265AD
:1041500073656E642064617461200A004552523AAE
:1041600020726573656E642064617461206572728B
:104170006F720A004552523A2067697A50726F7422
:104180006F636F6C436F6D6D6F6E41636B20646125
:10419000746120697320656D707479200A000000D5
:1041A0005761726E696E673A67697A50726F746FA1
:1041B000636F6C526573656E64446174612025643D
:1041C0002025642025640A0067697A50726F746F35
:1041D000636F6C476574446576696365496E666FA5
:1041E000204572726F72202C20496C6C6567616C7F
:1041F00020506172616D0A00303030303030303420
:10420000000000003030303030303032000000002C
:104210003033303330303030000000003033303154
:104220003031303000000000613930353666663993
:104230003163663134396436623935373166383541
:104240003432623839303062000000003465303773
:104250003266643031383435343364396261313830
:1042600036653438376436623939636200000000DD
:1042700067697A50726F746F636F6C4572726F7298
:10428000436D64204572726F72202C20496C6C65FE
:1042900067616C20506172616D0A00004552523AAC
:1042A000204E545020697320656D707479200A0087
:1042B0006E06002067697A50726F746F636F6C4D81
:1042C0006F64756C65537461747573204572726F99
:1042D00072202C20496C6C6567616C2050617261A2
:1042E0006D0A0000F20300204F6E426F6172646934
:1042F0006E673A20536F66744150206F7220576585
:1043000062206D6F64650A004F6E426F617264696E
:104310006E673A204169724C696E6B206D6F6465FF
:104320000A0000004F6E426F617264696E673A2046
:1043300053746174696F6E206D6F64650A000000CC
:10434000F5A001F013FA0FE00421FB4890F8942047
:1043500095308154953890F89400401CF64981F8C6
:104360009400F6A001F002FAFC480078C0F30010B7
:10437000217AC1F3001188422CD0207A0109F74834
:10438000007861F30410F5490870207AC0F300103A
:1043900080B10521E84890F89420953081549538F3
:1043A00090F89400401CE44981F89400ECA001F0DE
:1043B000DDF90FE00621E04890F894209530815413
:1043C000953890F89400401CDB4981F89400ECA0EB
:1043D00001F0CCF9E1480078C0F34010217AC1F334
:1043E000401188422CD0207A4109DC48007861F3E2
:1043F0004510DA490870207AC0F3401080B10721D7
:10440000CD4890F8942095308154953890F89400D8
:10441000401CC94981F89400E2A001F0A7F90FE01F
:104420000821C54890F8942095308154953890F82B
:104430009400401CC04981F89400E1A001F096F975
:10444000C6484078C0F3C001607AC0F3C000814222
:104450002CD0607AC108C148407861F3C300BF49DD
:104460004870607AC0F3C00080B10B21B24890F868
:10447000942095308154953890F89400401CAE49B2
:1044800081F89400D6A001F071F90FE00C21AA4840
:1044900090F8942095308154953890F89400401C01
:1044A000A54981F89400D5A001F060F9AB484078A7
:1044B000C0F30011607AC0F3001081422CD0607A02
:1044C0000109A648407861F30410A4494870607A55
:1044D000C0F3001080B10921974890F894209530DE
:1044E0008154953890F89400401C934981F89400C9
:1044F000CAA001F03BF90FE00A218F4890F8942000
:1045000095308154953890F89400401C8A4981F880
:104510009400C9A001F02AF90D21874890F8942051
:1045200095308154953890F89400401C824981F868
:104530009400607A00F0070081F81C01084690F8AA
:104540001C11C4A001F012F902207B490870002060
:1045500067E510B54620C3490860C348C8600846EF
:1045600001F00CF818B9C1A001F000F902E0C4A0F4
:1045700001F0FCF84FF4B5716F4801F0D7FA10BDA7
:1045800030B587B005460024062D7DD2DFE805F062
:1045900003316193C2C101A8FEF76CFE0B208DF8B8
:1045A0000800654890F84B10D0F84B00401C624A58
:1045B000C2F84B00C8B28DF80900052000F07FFC5E
:1045C000ADF80600092101A800F066FC8DF80C008A
:1045D000092101A8FEF770FD0446002C04DA2146EB
:1045E000AFF62C1001F0C2F8092101A8FEF753FE26
:1045F000B0E104A8FEF73EFE09208DF814004E48F5
:1046000090F84B10D0F84B00401C4B4AC2F84B00BE
:10461000C8B28DF815008DF81850062000F04FFC38
:10462000ADF812000A2104A800F036FC8DF819003C
:104630000A2104A8FEF740FD0446002C04DA2146B6
:10464000AFF68C1001F092F80A2104A8FEF723FEC1
:1046500080E104A8FEF70EFE09208DF8140036480C
:1046600090F84B10D0F84B00401C334AC2F84B0076
:10467000C8B28DF815008DF81850062000F01FFC08
:10468000ADF812000A2100E060E104A800F004FC8B
:104690008DF819000A2104A8FEF70EFD0446002C2F
:1046A00004DA2146AFF6F01001F060F80A2104A800
:1046B000FEF7F1FD4EE101A8FEF7DCFD13208DF8B9
:1046C00008001D4890F84B10D0F84B00401C1A4AC7
:1046D000C2F84B00C8B28DF80900052000F0EFFBCE
:1046E000ADF80600092101A800F0D6FB8DF80C00FA
:1046F000092101A8FEF7E0FC0446002C04DA21465B
:10470000AFF64C2001F032F8092101A8FEF7C3FDF5
:1047100020E1EDE0BEE00000576946692073746156
:104720007475733A20696E2062696E64696E6720E1
:104730006D6F64650A0000005105002057694669E5
:10474000207374617475733A206F75742062696E9A
:1047500064696E67206D6F64650A0000F2030020D3
:1047600057694669207374617475733A20636F6E7C
:104770006E656374656420726F757465720A0000FB
:1047800057694669207374617475733A206469735C
:10479000636F6E6E656374656420726F75746572A5
:1047A0000A00000057694669207374617475733A92
:1047B00020636F6E6E6563746564206D326D0A00F0
:1047C00057694669207374617475733A206469731C
:1047D000636F6E6E6563746564206D326D0A0000F0
:1047E00057694669207374617475733A20617070FB
:1047F00020636F6E6E6563740A0000005769466936
:10480000207374617475733A206E6F20617070202C
:10481000636F6E6E6563740A000000005769466935
:10482000207374617475733A20696E2074657374B3
:10483000206D6F64650A00005769466920737461D2
:104840007475733A206F75742074657374206D6F7E
:1048500064650A0052535349206973202564200A75
:1048600000000000BB060020CB06002072624372ED
:10487000656174652053756363657373200A000076
:104880007262437265617465204661696C64200AD6
:104890000000000001A8FEF7EDFC15208DF80800CF
:1048A000F64890F84B10D0F84B00401CF34AC2F881
:1048B0004B00C8B28DF80900052000F000FBADF8F0
:1048C0000600092101A800F0E7FA8DF80C00092183
:1048D00001A8FEF7F1FB0446002C04DA2146AFF6EE
:1048E000284000F043FF092101A8FEF7D4FC31E085
:1048F00001A8FEF7BFFC29208DF80800DF4890F8DA
:104900004B10D0F84B00401CDC4AC2F84B00C8B238
:104910008DF80900052000F0D2FAADF80600092153
:1049200001A800F0B9FA8DF80C00092101A8FEF7E2
:10493000C3FB0446002C04DA2146AFF6844000F0A5
:1049400015FF092101A8FEF7A6FC03E0CCA000F0AA
:104950000DFF00BF00BF204607B030BD3EB50024AC
:104960006846FEF787FC17208DF80400C34890F8CE
:104970004B10D0F84B00401CC04AC2F84B00C8B2E4
:104980008DF80500052000F09AFAADF80200092123
:10499000684600F081FA8DF8080009216846FEF7A4
:1049A0008BFB0446002C03DA2146BBA000F0DEFEA0
:1049B00009216846FEF76FFC3EBD3EB500246846FF
:1049C000FEF758FC21208DF80400AC4890F84B10FD
:1049D000D0F84B00401CA94AC2F84B00C8B28DF871
:1049E000050000208DF80800062000F068FAADF8F8
:1049F00002000A21684600F04FFA8DF809000A21EA
:104A00006846FEF759FB0446002C03DA2146A2A0B3
:104A100000F0ACFE0A216846FEF73DFC3EBD70B5D5
:104A2000044625462CB9A4A000F0A0FE4FF0FF30AC
:104A300070BD412205F10801A34801F000F80F21E3
:104A40008E4890F8C020C1308154C13890F8C00021
:104A5000401C8A4981F8C000052008700020E7E763
:104A60002DE9F04196B00546002600200390029003
:104A700000248046002735B994A000F077FE601E20
:104A800016B0BDE8F081FFF7CAF903AA7B49491CBB
:104A90009848FFF71FF80646002E72D196A000F046
:104AA00065FE764C641C20790F284FD00ADC0E2856
:104AB00073D2DFE800F07216721A727243387272A3
:104AC0004472453C182852D006DC112847D01428DF
:104AD00046D0162861D134E0222854D02A285CD14F
:104AE00030E02046FFF7CAF95FE0E279A17987A0BC
:104AF00000F03CFE02A8009007F10900BDF80C3060
:104B00001A1A5E480930C11904AB4046FEF754FD3D
:104B100040B9E37904A92046029AFEF7DFFE7FA0A0
:104B200000F024FE41E02046FFF74DF93DE020462D
:104B3000FFF749F92046FFF76CFA36E000BF00BFE7
:104B400000BF00BF2046FFF726F92EE02046FFF702
:104B50003AF975A000F00AFEFFF74DFA25E024E0CF
:104B60002046FFF718F975A000F000FE1DE0204672
:104B7000FFF711F92046FFF70BFA78A000F0F6FDD9
:104B800013E013E009E02046FFF705F92046FFF7A0
:104B900046FF78A000F0EAFD07E002212046FFF77B
:104BA000C9F97BA000F0E2FD00BF0EE016F1020F94
:104BB0000BD1324C641C01212046FFF7BBF97AA0CF
:104BC00000F0D4FD6FF001005AE72C480078062869
:104BD0004DD2DFE800F04C0312222D3D0020274982
:104BE00008701C22E431A1F16600FEF773F916216A
:104BF00022487E3000F09AFF3AE000201F490870FA
:104C0000012201F58E71A1F18800FEF763F91621EA
:104C10001A48943000F08AFF2AE0002017490870F3
:104C20000846D0F8472024317E30FEF753F91FE0C4
:104C30000020124908700C2201F21D11A1F173002D
:104C4000FEF748F9162120487F3800F06FFF0FE08B
:104C500000200A49087041221B49A1F16900FEF7B2
:104C600039F941211848693800F060FF00E000BFC1
:104C700000BF2846FEF7EBFE002001E751050020AB
:104C80004552523A204366674D6F646520657272E3
:104C90006F72210A000000004552525B4E54505D75
:104CA0003A2075617274207772697465206572723A
:104CB0006F72202564200A004E54502069732065CD
:104CC0006D707479200A00007A06002047697A77AF
:104CD00069747348616E646C65204572726F7220EE
:104CE0002C20496C6C6567616C20506172616D0AA3
:104CF00000000000BB060020476574204F6E652051
:104D00005061636B6574210A00000000666C616786
:104D1000202578202578200A0000000041636B449C
:104D2000617461203A200A007265706F72743A4DA6
:104D30004355207265626F6F74210A0041636B20D6
:104D400050524F44554354494F4E5F4D4F444520B8
:104D500073756363657373200A00000041636B2001
:104D60004745545F555454207375636365737320CE
:104D70000A00000041636B204745545F4D6F647526
:104D80006C652073756363657373200A000000000F
:104D90004552523A20636D6420636F6465206572EA
:104DA000726F72210A0000004552523A2063686512
:104DB000636B2073756D206572726F72210A00003B
:104DC0002DE9F0418AB006460F464FF0000801ACCD
:104DD000B81D85B23EB924A000F0C8FC4FF0FF30EA
:104DE0000AB0BDE8F081FF2004F8010B04F8010BC4
:104DF000281204F8010B04F8015B052004F8010BEC
:104E0000234890F84B10D0F84B00401C204AC2F8C1
:104E10004B0004F8011B002004F8010B04F8010BFF
:104E2000062004F8010B3A4631460DF10D0000F062
:104E300006FE291D01A800F02FF80146E81C01AA72
:104E40001154291D01A8FEF737F98046B8F1000F6B
:104E500003DA41460F4800F089FC291D01A8FEF73E
:104E60001AFA0020BCE700005B4552525D206769DA
:104E70007A77697473506173737468726F75676859
:104E800044617461204572726F72200A0000000054
:104E900051050020B83C000810B50246002400234C
:104EA00002B109B9002010BD022303E0D05C204408
:104EB000C4B25B1C481E9842F8D82046F3E701B5FF
:104EC00081B000200090694601AA507808701078DF
:104ED0004870BDF800000CBD0146080601F47F4291
:104EE00040EA022001F47F0240EA122040EA116009
:104EF000704710B502460024302A05DB392A03DC4E
:104F0000A2F13000C3B20EE0412A05DB462A03DCE1
:104F1000A2F13700C3B206E0612A04DB662A02DC94
:104F2000A2F15700C3B2302905DB392903DCA1F116
:104F30003000C4B20EE0412905DB462903DCA1F1B3
:104F40003700C4B206E0612904DB662902DCA1F166
:104F50005700C4B204EB0310C0B210BD70B50446D4
:104F600000250026204600F04BFD06460CB9681EC1
:104F700070BD002505E0605D302801D00020F7E716
:104F80006D1CB542F7D30120F2E72DE9F04303464B
:104F900000BF0025002400260027012901D0022996
:104FA0000DD1A3F1010C4FF06408BCFBF8F4BCFB7D
:104FB000F8F908FB19C501F10C06174609E04FF096
:104FC000640CB3FBFCF4B3FBFCF80CFB18350E4689
:104FD000174606F1010C4FF01A080CFB08FC4FF0C5
:104FE0000A08BCFBF8FC05EB950808EB94084FF0A9
:104FF000020909FB1488C444BC44ACF10100002838
:1050000006DB4FF0070C90FBFCF80CFB180C07E0DC
:105010004FF0070C90FBFCF80CFB180C0CF1070C84
:105020006046BDE8F08301460A46C81701EB907060
:105030008010A1EB800070B9642091FBF0F300FBBD
:10504000131030B94FF4C87091FBF0F300FB13104C
:1050500008B9012070470020FCE710B5044620463F
:10506000FFF7E1FF10B14FF4B77010BD40F26D10C3
:10507000FBE72DE9F04190B080460E4640F2B27554
:105080003022694901A800F01FFD344604F5E144CF
:1050900000BF11E02846FFF7E0FF074640F2A320DB
:1050A0007843B4EBC01F06D340F2A3207843A4EBAF
:1050B000C0146D1C00E001E0002CEBD100BFA8B2D1
:1050C000ADF83400002518E0BDF83400FFF7ABFF61
:1050D00008B11D20029001A850F8250040F2A3213C
:1050E0004843B4EBC01F07D301A850F8250048433C
:1050F000A4EBC0146D1C00E001E0002CE4D100BF63
:105100001C200290681CC0B28DF83600012506E014
:105110004648844202D3241A6D1C00E001E0002CB2
:10512000F6D100BFE8B28DF837004FF46160B4FBF0
:10513000F0F0C0B28DF838004FF46160B4FBF0F1CC
:1051400000FB11403C21B0FBF1F0C0B28DF83900FA
:105150003C20B4FBF0F100FB11408DF83A00CDF893
:105160003B600D98C8F800000E98C8F80400BDF820
:105170003C00A8F808009DF83E0088F80A0010B02E
:10518000BDE8F0812DE9F05F80460E46914600248F
:105190001CE016F814A06000401C16F800B0504641
:1051A00000F0D4FA3038C5B2092D01DDE81FC5B2D0
:1051B000584600F0CBFA3038C7B2092F01DDF81F8E
:1051C000C7B207EB051008F80400641C4C45E0DB8F
:1051D000BDE8F09FF0B5034600201EE00E5CF71717
:1051E00006EB17773F1107F130050E5CF71706EB5A
:1051F00017773F11A6EB07173037FCB2392D01DDC9
:10520000EE1DF5B2392C01DDE61DF4B203F81050A5
:10521000012606EB40069C55401C9042DEDB002632
:1052200003F81260F0BD00005C6B000880510100C3
:1052300030B502460B460021002400250AB9481E5D
:1052400030BD002108E0545C581A401E155C5554CE
:10525000581A401E1454491CB1EB530FF3D30020CD
:10526000EEE710B503460020541AB4FBF3F010BD6E
:1052700010B50346002002FB031010BD2DE9F047D6
:1052800004460E46154600273146284600F0E4FF46
:105290008146214600F01EFE804600F0DDFE0746F6
:1052A0003846BDE8F0872DE9F04704460E4615461E
:1052B0000027284600F0F0FE8146214600F000FF5E
:1052C0008046314600F0A4FD07463846BDE8F08729
:1052D000024612B102F0070028B9082901D80020BF
:1052E00070470120FCE702F00700C0F10800884287
:1052F00001D30020F4E70120F2E72DE9F04705464D
:10530000884614461E464FF00009CA46002700236F
:1053100014B9581EBDE8F087EB0841462846FFF750
:10532000D7FF07463FB9E05C05F0070106FA01F137
:105330000843E0541DE0012F1BD1F0B205F0070136
:10534000C1F1080140FA01F905F00700C0F10801B8
:10535000FF20084100EA060A581C205C40EA0900C8
:10536000591C6054E05C05F007010AFA01F108439A
:10537000E0540020CEE72DE9F04F8FB004460F46F1
:1053800090461D460026B246B146B34600200E9018
:10539000B8F1000F00D025B94FF0FF300FB0BDE8D5
:1053A000F08F4FEAD4092A46414601A800F047FB96
:1053B000012D09D9294601A8FFF73AFFB0F1FF3FB7
:1053C00002D14FF0FF30E9E739462046FFF780FF72
:1053D0008246BAF1000F0CD101A810F8090004F0C0
:1053E00007010841C7F10802FF21114108400643A7
:1053F00021E0BAF1010F1ED101A909F10100085CF9
:1054000004F00701C1F10801791AC1F10802FF2176
:10541000114100EA010B01A810F8090004F007018E
:1054200008410E9004F00700C0F108010BFA01F0EA
:1054300006430E9806433046B0E72DE9F04F8FB093
:1054400005460C4616469946189F4FF0000AD3466B
:1054500000200E908046B9F1000F00D027B94FF020
:10546000FF300FB0BDE8F08F3A46494601A800F082
:10547000E6FA012F09D9394601A8FFF7D9FEB0F1A4
:10548000FF3F02D14FF0FF30EBE731462046FFF7F8
:105490001FFF8246BAF1000F0CD101A8405D04F055
:1054A00007010841C6F10802FF211141084040EA06
:1054B000080821E0BAF1010F1ED101A9681C085C9F
:1054C00004F00701C1F10801711AC1F10802FF21BE
:1054D000114100EA010B01A8405D04F007010841F9
:1054E0000E9004F00700C0F108010BFA01F040EA49
:1054F00008080E9848EA00084046B2E72DE9F04750
:1055000004460D461746089E4FF00009CA46C84695
:105510001BB94FF0FF30BDE8F08739462846FFF74A
:10552000D7FE8046B8F1000F07D1185D05F00701DE
:1055300006FA01F1084318551EE0B8F1010F1BD11E
:10554000F0B205F00701C1F1080140FA01F905F0D8
:105550000700C0F10801FF20084100EA060A601CAC
:10556000185C40EA0900611C5854185D05F00701F9
:105570000AFA01F1084318550020CCE7014611B999
:105580004FF0FF307047C8684860C86888600020E6
:10559000F8E7014611B94FF0FF3070470020C860AE
:1055A00048608860086000BFF7E7014611B94FF016
:1055B000FF3070470868FCE700B5024612B94FF0AB
:1055C000FF3000BD50689168884201D10020F8E7A3
:1055D00050689168884203D290685168401AF0E799
:1055E0001046FFF7E2FF51689368C91A401AE8E7CE
:1055F00030B5044614B94FF0FF3030BD2046FFF7F8
:10560000D4FF05462046FFF7D7FF281AF5E72DE916
:10561000F04104460F461646002514B9681EBDE841
:10562000F08117B94FF0FF30F9E76068A168884250
:1056300014D22046FFF7C0FFB04201D9304602E045
:105640002046FFF7B9FF054661682A46384600F054
:10565000F6F96068284460602846E0E72046FFF7D6
:10566000A4FF6168E268891A401AB0420AD9354637
:1056700061682A46384600F0E2F9606828446060B4
:105680002846CCE72046FFF790FF6168E268891A58
:10569000451A61682A46384600F0D1F9E068606032
:1056A000721B79192046FFF7B2FF05442846B6E77A
:1056B0002DE9F04104460F461546002604B11FB9F6
:1056C0004FF0FF30BDE8F0812046FFF791FFA84280
:1056D00002D86FF00100F5E76068A16888422AD817
:1056E0002046FFF762FFA168E268891A461AB542B0
:1056F00013D8A0682A46394600F0A1F9A0682844CA
:10570000A0602046FFF751FFE1680844A168884285
:1057100001D1E068A0602846D4E7A0683246394647
:1057200000F08DF9E068A060AA1BB9192046FFF7C8
:10573000BFFF3044C6E7A0682A46394600F07FF92B
:10574000A0682844A0602846BCE7704710B504460E
:1057500000F012FA0068005D000704D5DF2C02D0CB
:10576000A4F1200010BD204610BD00000FB4044974
:1057700010B503AA029800F061FA10BC5DF814FBA2
:10578000D803002070B5044685690068C10601D5BC
:10579000302600E02026C00707D070BDD4E90121E3
:1057A00030469047206A401C20626D1EF6D570BDC1
:1057B00070B5044685690078C00707D170BDD4E98B
:1057C000012120209047206A401C20626D1EF6D5E2
:1057D00070BD00002DE9F0410646002410687529CF
:1057E000314616A510D0AFF30080002802DA4042FF
:1057F00013A507E031688A0701D512A502E0490721
:1058000004D511A5012401E0AFF3008000210A2294
:1058100006F1240709E0B0FBF2FCB0FBF2F302FB57
:105820001C00303078541846491C0028F3D1234618
:105830002A463046BDE8F04100F0A6B9000000005D
:105840002D0000002B0000002000000070B5044671
:105850000D4621461068AFF300802188090502D566
:105860000F4A7A4402E00E4A7A440E32002104F1D3
:10587000240305E000F00F060009965D5E54491C04
:105880000028F7D120780023000704D5702D02D01E
:1058900009B1022311322046BDE8704000F074B90E
:1058A000261300002DE9F05F894604464FF0000AF8
:1058B000DFF824B1FB44C0F820A02046E168884707
:1058C00000287DD0252806D0D4E901219047206A00
:1058D000401C2062F1E700255F462046E1688847CA
:1058E0002028064607DB312E05D2B81910F8200C07
:1058F00008B10543F1E7A80701D525F00405C4F870
:105900001CA00027C4F818A02A2E09D0304600F0A9
:1059100061FA38B304EB8708303EC8F8186019E024
:1059200059F8041B204604EB87029161E16888471F
:10593000012F064618D1E069002820DA25F020055D
:105940001DE0D8F8180000EB800006EB400030386E
:10595000C8F818002046E1688847064600F03AFA81
:105960000028EED1012F0AD02E2E08D12046E16862
:1059700088477F1C0646022F45F02005C4DBA0693E
:10598000002803DA404245F00105A061E80701D094
:1059900025F01005A6B1A6F14100192802D820363D
:1059A00045F400654A463146204625604D46FAF7E3
:1059B000F7FB60B1012807D0ED1D25F0070000E0DE
:1059C00007E000F1080978E705F1040975E73046BA
:1059D0007AE7206ABDE8F09FFC12000030B505466A
:1059E0000B462A4613F8014B12F8010B08B1A042EE
:1059F000F8D01CB1002802D06D1CF1E7284630BD5C
:105A000010B5431C02E010F8011B71B18107FAD1F7
:105A10004FF0013202C88C1A8C4314EAC211F9D03B
:105A2000C01A0A0603D0C01E10BDC01A10BD0A0459
:105A300001D0801E10BD0902FCD0401E10BD032AFB
:105A400040F2308010F0030C00F0158011F8013B9B
:105A5000BCF1020F624498BF11F801CB00F8013B82
:105A600038BF11F8013BA2F1040298BF00F801CB46
:105A700038BF00F8013B11F0030300F02580083A1D
:105A8000C0F0088051F8043B083A51F804CBA0E874
:105A90000810F5E7121D5CBF51F8043B40F8043BC9
:105AA000AFF30080D20724BF11F8013B11F801CBFE
:105AB00048BF11F8012B24BF00F8013B00F801CBCF
:105AC00048BF00F8012B704710B5203AC0F00B809A
:105AD000B1E81850203AA0E81850B1E81850A0E8F2
